:100000006F00F05713000000130000001300000001
:100010001300000013000000130000001300000094
:100020001300000013000000130000001300000084
:08003000130000007300100032
:100038000000000000000000A8020000AC02000060
:1000480000000000C40C00000000000000000000D8
:10005800C60C0000C80C00000000000000000000F2
:10006800CA0C000000000000CC0C000000000000DA
:10007800CE0C0000D00C0000D20C0000D40C000004
:10008800D60C0000D80C0000DA0C0000DC0C0000D4
:10009800DE0C0000E00C0000E20C0000E40C0000A4
:1000A800E60C0000E80C0000EA0C0000EC0C000074
:1000B800EE0C0000F00C0000F20C0000F40C000044
:1000C800F60C0000F80C0000FA0C0000FC0C000014
:1000D800FE0C0000000D0000020D0000040D0000E1
:1000E800060D0000080D00000A0D00000C0D0000B0
:1000F8000E0D0000100D0000120D0000140D000080
:10010800160D0000180D00001A0D00001C0D00004F
:100118001E0D0000200D0000220D0000240D00001F
:10012800260D0000280D00002A0D00002C0D0000EF
:100138002E0D0000300D0000320D0000340D0000BF
:10014800360D0000380D00003A0D00003C0D00008F
:100158003E0D0000400D0000420D0000440D00005F
:10016800460D0000480D00004A0D00004C0D00002F
:100178004E0D0000500D0000520D0000540D0000FF
:10018800560D0000960400005A0D00005C0D00009A
:100198005E0D0000600D0000620D0000640D00009F
:1001A800660D0000680D00006A0D00006C0D00006F
:1001B8006E0D0000700D0000720D0000740D00003F
:1001C800760D0000780D00007A0D00007C0D00000F
:1001D8000000000000000000000000000000000017
:1001E8000000000000000000000000000000000007
:0801F8000000000000000000FF
:100200003D432A876373C3029377F700BDEFADE5E3
:10021000937606FF3D8ABA960CC34CC30CC74CC7F5
:100220004107E36BD7FE11E28280B306C3408A0622
:100230009702000096966780A6002307B700A306E2
:10024000B7002306B700A305B7002305B700A30432
:10025000B7002304B700A303B7002303B700A3022A
:10026000B7002302B700A301B7002301B700A30022
:10027000B7002300B700828093F5F50F93968500B1
:10028000D58D93960501D58D61B79396270097027A
:10029000000096968682E78086FA9680C1171D8FA9
:1002A0003E96E374C3F8A5B77300203001A0B717DA
:1002B000024037070011D8D7D857B70600C013053A
:1002C000800C558FD8D7D84B856693860680558F7E
:1002D000D8CB6F108025B7370240370707009387C8
:1002E00007401D0798CB23AA070023AC070013077C
:1002F0000004239CE70813070040239EE70823908F
:10030000E70A130700202392E70A2394E70A2396BB
:10031000E70A2398E70A239AE70A239CE70A239E21
:10032000E70A2390E70C2392E70C2394E70C23962B
:10033000E70C2398E70C239AE70C138701A6D8CF84
:10034000138701CAF8CF370700201307072098D377
:10035000138701EAB8D3138701AAD8D3239C070CCB
:100360000947238DE70CA38D070C93062002239EDB
:10037000070C13070002238FD70CA38FE70C2390E1
:10038000070E2381D70EA381E70E2392070E238346
:10039000D70EA383E70E2394070E2385D70EA385DC
:1003A000E70E2396070E2387D70EA387E70E239821
:1003B000070E2389D70EA389E70E239A070E238BF6
:1003C000D70EA38BE70E239C070E238DD70EA38D8C
:1003D000E70E239E070E238FD70EA38FE70E2390E1
:1003E00007102381D710A381E710239207102383DE
:1003F000D710A383E710239407102385D710A38574
:10040000E710239607102387D710A387E7102398B8
:1004100007102389D710A389E710239A0710238B8D
:10042000D710A38BE710828005E1B737024003C7DE
:1004300007401377F70E2380E74003C70740136791
:1004400067002380E7408280411106C622C437340A
:100450000240A30004404147A300E44023000440BD
:10046000130790022300E4402301044013077002A5
:100470002301E4407D572328E440B13D2945EF1096
:10048000C00A8347044093E707012300F440B240C9
:10049000224441018280011122CE3734024026CC11
:1004A0004ACA4EC852C656C4130404400347A400A7
:1004B000938771831377F70F2380E70003C7070043
:1004C000098B55C70347B4008347B4003D8B918324
:1004D0008D8B15EB09476389E71691E7231C040C04
:1004E000A147230DF40CB737024009472385E740A5
:1004F0007244E2445249C249324AA24A93870740B1
:1005000005617300203085466305D7168946E31CD4
:10051000D7FCF1FB0354C4004204418001CC130614
:10052000F4FF420641820506938501AA138501EA7C
:10053000EF20103BB73702402390874E03C7274E6A
:100540001377C70F2381E74E03C7274E1377F70FA3
:100550002381E74E03C7374E1377C70FA381E74EBA
:1005600003C7374E1377F70FA381E74EADBF03C71D
:1005700007001377070225CF938601A683D766006D
:1005800003C7160083C401A6138441832310F4001B
:10059000B70700209387171B2380E70013F7040693
:1005A00051C713F70404630E071203C707005D4623
:1005B0006303E61C7D572380E700B7370240239C86
:1005C000074C0D47238DE74CA38DE74CB73702400E
:1005D000130700022385E7407244E2445249C249AE
:1005E000324AA24A9387074005617300203003C74F
:1005F0000700058B71E783C70700918B99CF93871D
:10060000618303C707001377D70F2380E70085476F
:100610002389F18291472305F4007244E244524950
:10062000C249324AA24A05617300203003C707005D
:100630002D461377F70FE36FE6F611660A071306E8
:10064000862D329718430287B707002083C7171BF0
:10065000194793F7F70F638DE72E5D47638AE72EFF
:1006600015476380E736A147A30DF40C23A801A426
:100670009DBDE39A07E637050020938501CA13055F
:100680000520EF00B07A42054181231EA40C834768
:10069000E40D93F7C70F230FF40C8347E40D93F792
:1006A000F70F230FF40C8347F40D93F7C70FA30F35
:1006B000F40C8347F40D93F7F70FA30FF40C25B553
:1006C0009384018323800400393183C70400A3018C
:1006D000040093F7F70FA301F40085472305F40006
:1006E0002DBF83A901A581470357040063F4E700E8
:1006F0002310F400835704001307F003130A0004C7
:10070000637BF704CE855286138501A6D299EF202C
:10071000301D23A831A593978401E187014763CA5F
:100720000700B7370240239CE74C2147238DE74C55
:1007300071BD83570400130700046366F700035775
:1007400004004207418383570400998FC207C18385
:100750002310F400F9B7035A0400420A135A0A019D
:1007600055B703570400238001A68547E3F5E7FA50
:100770002310F4004DB783D7460011476387E7265F
:100780001547E390E7F6B70900209387C90923A826
:10079000F1A49389C9099307E008B9B713F7F401E5
:1007A0000946630FC724E31707E003C72600854700
:1007B000E313F7F69387618303C707001377E70F07
:1007C0002380E70089BF83D74600239001A6130743
:1007D0001008638CE7240547638FE726130720087A
:1007E0006386E7280947638AE72A03570400894795
:1007F000E3F3E7F22310F40039BF83C62600A38891
:10080000D18205472389E18239B783C61183035713
:10081000040085472380D1A6E3FFE7EE2310F40010
:10082000DDBD03D62600BD4613578600E3E4E6D8B7
:1008300091660A079386863036971843028703C766
:1008400026002388E182C1BD13F7F4010946E313B2
:10085000C7D603D62600E31F06D483C646006389A5
:10086000E62E6377D72413071008638CE62E130750
:100870002008E391E6D4B737024003C7274E136739
:1008800037002381E74E41BD91699387893423A8BE
:10089000F1A493898934D94781BD37070020130714
:1008A000271B834607000546630CD6220347070033
:1008B0001377F70FE31007D0B7090020138A490117
:1008C00091651306C0029385253913052A00EF2090
:1008D00030019389490123A841A59307E00229B576
:1008E00091699387C94023A8F1A49389C940A94776
:1008F000E5BB91699387093923A8F1A49389093944
:100900009307E002D5B3B70900209387090023A815
:10091000F1A49389090083C70700F9B31376F60F92
:1009200009476305E620637EC71411476307E61E87
:10093000636CE61C1307E00EE31EE6C6B709002051
:100940009387C91223A8F1A49389C912C94769BB27
:1009500013844183835704001307F0036362F7088D
:10096000035904004209135909014A8A83A401A5C5
:100970005286A685138501A6EF20807603570400D2
:10098000B70700209387071B33072741420741839E
:100990002310E40003C70700D29423A891A41347AF
:1009A00017002380E70037370240231C274D83C7F9
:1009B000070093F7F70F93B717008E07230DF74C37
:1009C0001DB683C70183A301040093F7F70FA301AA
:1009D000F400231C040C230D040CA30D040C21B6FD
:1009E000130A00041309000451B7B70900209387C4
:1009F000490723A8F1A49389490793078002EDB121
:100A000083C646006382E60C637FD7021306100894
:100A10006381C60C13062008E39EC6B8B7370240B0
:100A20002390074E2381E74EFDB1B73702409387ED
:100A3000074083C7E70D0D478D8BE398E7DA8547BD
:100A40002380F1A65DB30547E396E6B6B7370240CB
:100A5000A38F074CC9B1B73702409387074083C7BC
:100A6000F70D0D478D8BE392E7D8D1BFB737024022
:100A70009387074083C7270E0D478D8BE397E7D6F3
:100A80007DBF5DCE0547E317E6B29387818123A83A
:100A9000F1A493898181A14781B9B7370240938737
:100AA000074083C7370E0D478D8BE390E7D441BFD6
:100AB0000547E391E6B0B737024003C7F74D136728
:100AC0003700A38FE74C81B9B73702402381074E27
:100AD00099B1B7370240239E074C238FE74C25B9C5
:100AE000B7090020138A490491651306C002938553
:100AF000253613052A00EF20A05E9389490423A818
:100B000041A59307E002CDB691699387893F23A859
:100B1000F1A49389893FC947C1BE91699387093C74
:100B200023A8F1A49389093CD1477DBE916993879D
:100B3000493D23A8F1A49389493D930740026DB62E
:100B40009387418123A8F1A493894181914769BE8C
:100B5000B737024003C7374E13673700A381E74E0C
:100B60005DBEB737024003C7E74D13673700238FD9
:100B7000E74C55B6411106C6EF00901837450F00F7
:100B800013050524EF00901DB707002083A5471B20
:100B90003745000013058541EF20E05FEF108076B8
:100BA000EFF0EFF00545EFF03F88B7E700E03707DB
:100BB000200023A4E71001A0B71702409843B7060E
:100BC000FFF841111367170098C3D8433715024047
:100BD000B7050200758FD8C39843B706F7FEFD1618
:100BE000758F98C39843B706FCFFFD16758F98C3A1
:100BF000D843B70681FFFD16758FD8C39843B70653
:100C000000ECFD16758F98C33707FF0098C723A621
:100C1000070202C402C69843C1660566558F98C391
:100C200021A0A247638AC7001C41ED8F3EC6A247A0
:100C300085073EC4B247F5D7B71702409C431397C8
:100C4000E700635A070085473EC632478547630978
:100C5000F7004101828002C632478547E31BF7FE59
:100C6000B7170240D8433706C1FF7D16D8C3D84313
:100C7000D8C3D4433717024093E60640D4C3D443C5
:100C8000F18ED4C3D4434166D18ED4C39443370686
:100C90000001D18E94C31C4393966700E3DD06FEEA
:100CA0005C4337160240A146F19B5CC35C4393E76B
:100CB00027005CC35C42B18BE39ED7FE410182807A
:100CC00001A001A001A001A001A001A001A001A01C
:100CD00001A001A001A001A001A001A001A001A00C
:100CE00001A001A001A001A001A001A001A001A0FC
:100CF00001A001A001A001A001A001A001A001A0EC
:100D000001A001A001A001A001A001A001A001A0DB
:100D100001A001A001A001A001A001A001A001A0CB
:100D200001A001A001A001A001A001A001A001A0BB
:100D300001A001A001A001A001A001A001A001A0AB
:100D400001A001A001A001A001A001A001A001A09B
:100D500001A001A001A001A001A001A001A001A08B
:100D600001A001A001A001A001A001A001A001A07B
:100D700001A001A001A001A001A001A001A0970174
:100D80000020938121C3177100201301A12717357B
:100D900000001305657D97F5FF1F9385A526138633
:100DA000018363FAC5008322050023A055001105C5
:100DB0009105E3EAC5FE138501839385410C6377B2
:100DC000B500232005001105E36DB5FEFD427390CB
:100DD00002BCFD4273904280B76200009382820899
:100DE00073A0023097F2FFFF9382422593E2320014
:100DF00073905230EFF05FDC970200009382C2D70D
:100E00007390123473002030944593F7060113F663
:100E1000F60099C3DC415D8E83D7050013F7F70F09
:100E200039CB184193058004638AB61A9305800272
:100E30006381B63A93F51700639E053093F527005A
:100E4000639C053293F547006395053693F587005B
:100E5000639A053493F50701639E053293F5070203
:100E60006392053293F507046390053093F5070804
:100E70006395052E18C11307F00F6370F70C5841E6
:100E800093058004639CB60A93F6071091C6419BB4
:100E900093060010518F14C993F6072089CA931640
:100EA00046001377F7F0558F9306002014C993F688
:100EB000074099CAFD769386F60F758F93168600C4
:100EC000558F9306004014C9856693860680B3F556
:100ED000D70081C9C575FD156D8F9315C6004D8F5F
:100EE00014C99396370163DB0600B706F1FFFD16C0
:100EF000758F93160601558F856614C99396270141
:100F000063DB0600B70610FFFD16758F93164601CA
:100F1000558F896614C99396170163DB0600B706DF
:100F200000F1FD16758F93168601558F916614C9D1
:100F3000C207C18763C7072858C182809305800212
:100F4000638AB61493F6071099C2419B518F93F6AA
:100F5000072091C61377F7F093164600558F93F646
:100F6000074081CAFD769386F60F758F931686002B
:100F7000558F9396470163D80600C576FD16758F89
:100F80009316C600558F9396370163D90600B706AE
:100F9000F1FFFD16758F93160601558F9396270165
:100FA00063D90600B70610FFFD16758F931646012C
:100FB000558F9396170163D90600B70600F1FD1609
:100FC000758F93168601558FC207C187E3D607F642
:100FD000120711837206518F58C185B793F5170018
:100FE00089C5419B8545518F0CC993F5270081C95F
:100FF000931546001377F7F04D8F89450CC993F58B
:10100000470091C9FD759385F50F6D8F9315860087
:101010004D8F91450CC993F5870089C9C575FD159C
:101020006D8F9315C6004D8FA1450CC993F507012F
:1010300091C9B705F1FFFD156D8F931506014D8F11
:10104000C1450CC993F5070299C9B70510FFFD15F5
:101050006D8F931546014D8F930500020CC993F5D2
:10106000070499C9B70500F1FD156D8F9315860129
:101070004D8F930500040CC993F50708E38C05DE3A
:1010800012079315C60111834D8F930500080CC9F3
:1010900018C1D5B393F6071091C6419B9306001073
:1010A000518F54C993F6072089CA931646001377C7
:1010B000F7F0558F9306002054C993F6074099CA5C
:1010C000FD769386F60F758F93168600558F9306DF
:1010D000004054C9856693860680B3F5D70081C960
:1010E000C575FD156D8F9315C6004D8F54C9939628
:1010F000370163DB0600B706F1FFFD16758F931607
:101100000601558F856654C99396270163DB060057
:10111000B70610FFFD16758F93164601558F896629
:1011200054C99396170163DB0600B70600F1FD165C
:10113000758F93168601558F916654C9C207C18772
:10114000E3DC07DE120711837206A167518F5CC9C9
:1011500058C1E5B3419B518FD5B112071183931547
:10116000C6014D8F18C101BBB70500F1FD156D8F8C
:10117000931586014D8FDDB91377F7F0931546006F
:101180004D8FC9B1B70510FFFD156D8F9315460141
:101190004D8FC9B9B705F1FFFD156D8F9315060188
:1011A0004D8F6DB9C575FD156D8F9315C6004D8FAB
:1011B00055B1FD759385F50F6D8F931586004D8F95
:1011C00071B1120711837206A167518F1CC958C1F2
:1011D000ADB393F5170089C5419B8545518F4CC927
:1011E00093F5270081C9931546001377F7F04D8FCB
:1011F00089454CC993F5470091C9FD759385F50F55
:101200006D8F931586004D8F91454CC993F58700DE
:1012100089C9C575FD156D8F9315C6004D8FA14504
:101220004CC993F5070191C9B705F1FFFD156D8F05
:10123000931506014D8FC1454CC993F5070299C915
:10124000B70510FFFD156D8F931546014D8F930562
:1012500000024CC993F5070499C9B70500F1FD15C3
:101260006D8F931586014D8F930500044CC993F53E
:101270000708E38105C012079315C60111834D8F3E
:10128000930500084CC918C1FDB6371702405C43EE
:101290009146B18B6385D700A1466385D706B71702
:1012A0007A00938707201CC1371602405442370743
:1012B0000020130707149182BD8ABA9683C60600E0
:1012C000B3D7D7005CC15442A1829D8ABA9683C627
:1012D0000600B3D6D70014C55442AD829D8A369716
:1012E00003470700B3D7E7005CC5584239839376BC
:1012F000370013878180369703470700B3D7E7028B
:101300001CC982805C43B7F6FF1F584383A6C67092
:101310004166C983BD8B718F139616018907635F80
:10132000060289466387D706BD466387D706C1464E
:10133000639BD7048146BD4705EB3747024003272F
:101340000780418B0DCB37177A0013070720B3872F
:10135000E7021CC1B1DA85831CC1B9B74546814695
:10136000E39CC7FCC94771DB37170240584313168B
:10137000E700E35A06FC37173D0013070790B387D1
:10138000E7021CC1C1BFC546639BD7008146C14768
:1013900065B78146C947C1BF8546B54771BF81461C
:1013A00061BF99C5371702401C4F5D8D08CF828001
:1013B000B7170240984F1345F5FF798D88CF82808B
:1013C0008356050103D76500F577FD177971F58F11
:1013D00022D426D206D6D98F03D7C5002318F5000C
:1013E0002A840355C500AE84FD7783D5450003D616
:1013F00084009387379F83D6A400E98FCD8FD18F48
:10140000D58F2316F400835744016800C207C183B7
:1014100093F7F7CFD98F231AF400853DB7470140E2
:10142000938707806301F40A52478356C4009317D9
:101430001700BA97C2068E07C186BA97984063C252
:1014400006040A07B3D7E702130740060356C40091
:1014500042064186B3D6E702B3F7E702920663423B
:101460000604920793872703B2509254B3D7E7023A
:10147000BD8BD58FC207C1832314F400225445616C
:1014800082800607B3D7E702130740060356C4005D
:1014900042064186B3D6E702B3F7E7029206E3526B
:1014A00006FC8E0793872703B2509254B3D7E70206
:1014B00013F77700B367D700C207C1832314F40082
:1014C00022544561828062478DB781C98357C50028
:1014D0000967D98F2316F50082800357C500F97775
:1014E000FD17F98F2316F500828093F5F51F23125F
:1014F000B5008280035505006D8D3335A0008280D4
:10150000B707002083A7471B37177A001307072068
:10151000B3D7E7021307803E93F7F70F3387E7024D
:10152000238DF182239CE1828280B7F700E0D843CB
:101530008146799BD8C383C5A18337F700E0338602
:10154000A50290CBD4CB944393E6160394C35C439B
:10155000858BF5DF1C43F99B1CC38280797126D2F1
:10156000AA8411658545110506D622D41D3D930731
:1015700000202312F100371501408D474C003EC476
:1015800013050580E147374401403EC6EFF0DF8791
:101590000C0813050480B707080026C83ECC231E9C
:1015A000010002CA313D130504808545393FB25020
:1015B000225492544561828001114EC606CE22CC3F
:1015C00026CA4AC8B2896357C00237440140AE8474
:1015D0003389C50013040480930500042285193F54
:1015E00065DD85048385F4FF2285C205C181F53D53
:1015F000E31499FEF24062444E85D2444249B24916
:10160000056182809387C18094431387410C36958E
:10161000636BE50037870020130707806365A70029
:1016200088C336858280FD5636858280597186D67C
:10163000A2D4A6D2CAD0CECED2CCD6CADAC8DEC602
:10164000E2C4E6C2EAC06EDE834705001307E00786
:1016500093C607086372D7022380F5007547138B82
:101660001500636BF70011678A0713078742BA9763
:101670009C43AE84AA8D8287FD5741642380F50088
:1016800005042285B650265496540659F649664AF2
:10169000D64A464BB64B264C964C064DF25D6561DC
:1016A0008280A380050083471500938425000549A7
:1016B00093052500938AF7FF054463880764B71BE9
:1016C0000140FD5935A883A70B802686D28593F764
:1016D000F7F093E7070323A0FB80EF00D054639A51
:1016E0000A0003A70B801377F7F01367070323A003
:1016F000EB800504B3056A015A94FD1A63873A61C9
:1017000003C50500138A1500214B9377F50381C7A4
:101710009D0713DB3700131785016187E35507FA2F
:1017200003A70B802686D2851377F7F0136707048B
:1017300023A0EB80EF00304F639A0A0083A70B8051
:1017400093F7F7F093E7070323A0FB800504DA94EF
:101750005A99D2855DB7FD57A380F4003704020083
:10176000090405B703441500FD57A380F5000504DF
:101770004204C1671364140085073E9419B703C778
:10178000010A8547E301F700FD5737040600A380EF
:10179000F5000904FDB503CD010A8547E30FFD00FF
:1017A000A380050023810500A38105000D4B83C79D
:1017B0004D00898B6382076837040400336B8B000C
:1017C000416405045A9475BD034625008345150000
:1017D000034735008347450093168600CD8E4207A8
:1017E000558FE207D98F638D077205671307873816
:1017F0006380E778370700200327471B2946814687
:101800003357C7023357F7029387010AD8C3A3801F
:10181000D70037040500A380040009049DB50347E1
:10182000450083C75D000345350083C52D0003C611
:101830006D002207498FC2075D8F13F515009317BE
:10184000860183C61D00D98F11C913F716006305E1
:1018500007703717014005462328C78013F8250075
:10186000630B080013F72600630E076E371701405D
:1018700009462328C7809398850193D8884163C27D
:1018800008269DC31387C1831043930716001CC30A
:1018900063000564B7170140938707809C47858BD9
:1018A0006388D762090610C33717014083268780F3
:1018B00083278780130707801847898B858A160737
:1018C00013770708D98FD58F37040700A380F4005A
:1018D000090445BB854511452380010A02D202D483
:1018E00002D6C1348D472312F10237150140930708
:1018F00080043ED64C1085471305058041643ED4D4
:101900000904EFF06FD0A3800400A5BB03471500C6
:1019100005498147E362E9E4854511452380210BB0
:1019200002D202D402D6B53C9D473714014023129F
:10193000F102C1473ED64C108D47130504803ED4BA
:10194000EFF08FCC0947232824812328E480114716
:101950002328E480854709B5834715001387010ACA
:1019600093F6370089838506858B230CD700A30C5B
:10197000F70037040200A3800500090419B303C768
:10198000010A93061500854736CC930B3500034AB0
:1019900025006302F71663020A4683C70B0013F79C
:1019A00027006300072EC18B639D072C850B7D1AD2
:1019B000DDB7034715009387010A2386E700034735
:1019C000350003462500370406002207518F23986F
:1019D000E700034755008346450009042207558F59
:1019E0002399E700A380050069B983471500638B3D
:1019F00007540547638EE752FD5737040300A38061
:101A0000F5000904BDB9834715001147138525006A
:101A10006388E7746370F7341307000F6387E77216
:101A2000637CF72E1307E00F6386E7701307F00F50
:101A30006393E73E8947A381F500238105003704BE
:101A4000020089471104A380F40025B94164238171
:101A50000500A38005000D042DB1FD57A380F500FE
:101A600003471500854709051306F7FFFD56E307F1
:101A700007CE034705001377F703630707201D0709
:101A80000D8305077D163A95BA97E314D6FE139495
:101A90000701C1671364140085073E94DDB6034552
:101AA000150093852D0063030538130475000D8020
:101AB00005044204C1671364140085073E94EF00D7
:101AC000500EA380040075BE834725000345150012
:101AD000A2075D8D993C37040300A380040009042C
:101AE0004DB613D77600630A0748371701401146F1
:101AF0002328C78079B393873500238E010A3ECA15
:101B0000630F0A7E02CE014502C6014C938A010A88
:101B10008949054D03C90B0093871B003EC8937785
:101B200029006389071683DD0A016E87630F0C04A1
:101B300013771901631CA7013DA263870D2E03C70C
:101B4000C10BFD1D1377F70F6310072E4C1039459D
:101B5000EF00F01DE30335FF014C631FA50D524755
:101B600092571107BA853ACA13D6870013D787014F
:101B700093D60701238EF5FEA38EC5FE238FD5FED7
:101B8000A38FE5FE03D70A01BA8D93760901137678
:101B900019006380061E83CC2B0003C51B0083C67F
:101BA0003B0083C54B00A20CB3ECAC0093875B00F9
:101BB000C206B3E696013EC8939C8501B3ECDC00F7
:101BC00083DB2A010DC611A8FD1DFD576386FD06A6
:101BD00003C7C10B1377F70F25E381454A85EF0053
:101BE0001015E30335FF6319A50503D70A01BA8D64
:101BF00009A863810D0883C7C10BFD1D93F7F70F7B
:101C0000B5EB4C104A85EF009012AA86E30335FF2E
:101C100083A74A011257F98F631FA505638EFC1431
:101C200063880B0083C7C10BFD1B93F7F70FD5DF4C
:101C300013E506011375F50FC24B39A0C18B91EB6B
:101C4000850B7D1A630E0A0883C70B0013F7270064
:101C500075F7950BFDB7E3810DFE03C7C10BFD1DA5
:101C60001377F70F71FB4C104A85EF00500CE3041B
:101C700035FFE5B5125783A74A017D8FE39AECFA49
:101C800065BF950B7D1A01BB7D162505A507E312DF
:101C9000D6DEF5BB63110C1C83C62B0003C61B00EC
:101CA00003C73B0083C74B00A206D18E4207558F66
:101CB000E207D98F3ED213770902950B6304071E02
:101CC00023AAFA00014C0545324783C7C10B05071B
:101CD0003AC693F7F70F6390072A7D1AE31C0AE2CE
:101CE0008547630BF556E2472381A4003384FB400C
:101CF000D2474204338B6741B24733646401A38007
:101D0000F400C16785073E94ADBA4204C1673364ED
:101D1000240185073E94B5B21D47639EE70E374701
:101D200000000346474C9307474C83C6170003C780
:101D3000270083C737002381C400A300D500A30177
:101D4000F5002301E5003704020091471904A38040
:101D5000F40005BA09476380E73C6362F73405473E
:101D6000639BE70A374700009307074A0346074A81
:101D70006DBF05C263070C06C24B02CEB1B7FD1D95
:101D8000FD57E38BFDEA03C7C10B1377F70FE3158C
:101D900007EA4C104A85EF008079E30235FFE31D26
:101DA000A5E952479257C24B9305470013D68700C7
:101DB00093D6070113D787012ECA238EF5FEA38E73
:101DC000C5FE238FD5FEA38FE5FE02CEF5BDFD1D1A
:101DD000FD57E383FDE603C7C10B1377F70FE31D40
:101DE00007E481454A85EF008074E30235FFE3157F
:101DF000A5E502CE054CC24BC1BDE247A38004005D
:101E0000238104003384FB404204C167136424002F
:101E100085073E94BDB03704020081470904A380C2
:101E2000F4006FF01F865EC8014C39B537042200FC
:101E300009041305001061B103C43D0083C72D00E0
:101E400022045D8C05044A04C1673364640185077C
:101E50003E946FF01F8383DC0A0111A8E38E0CDC33
:101E600083C7C10BFD1C93F7F70FE39707DC4C10FA
:101E70003945752DE30435FFE310A5DD5247925730
:101E80001107BA853ACA13D6870093D6070113D72C
:101E90008701238EF5FEA38EC5FE238FD5FEA38F6B
:101EA000E5FEDDBB03DC0A0109A863060C0C83C751
:101EB000C10B7D1C93F7F70FBDF74C104A85852D9C
:101EC000E30535FFE311A5F785473ECE014CEDBB99
:101ED000630D0800B7170140938707809C4713D50F
:101EE00016008583858BE31FF59A93F7450089C714
:101EF00093D72600E398079A93F7050289C793D7EB
:101F00005600E391079AE3D1089AB71701409387E7
:101F100007809C479D828983858BE387F69859B219
:101F2000FD5737040500A380F40009046FF06FF536
:101F300083472500858B638F0714B7170140094736
:101F4000D8CB51BE83472500858B63800714B71714
:101F500001400547D8CB41B6371701400546232A33
:101F6000C780EDB8371701400946232AC78021B240
:101F70000547854651B85EC8C1B1371701401146C3
:101F8000232AC780FDB80346350083452500034753
:101F900045008347550093168600CD8E4207558F26
:101FA000E207D98F4C100145370406003ED20904E0
:101FB000BD2BA38004006FF0CFEC834C350083472A
:101FC0002500A20CB3E7FC00238E010A3EC6138A4B
:101FD00045006380072E03494500938A010A83D791
:101FE0000A0113772900631F071A130D5500014CCE
:101FF00093094102894B83451D0003450D000346AB
:102000002D0003473D00A205C98D42064D8E620793
:10201000518F3AD2110DBE8C09A863880C0403C7F6
:10202000C10BFD1C1377F70F29E3CE854A850123E9
:10203000E30575FF8547631AF502B247050CFD17E6
:102040003E873EC683D70A015DF73E89894909A8C4
:10205000630D090083C7C10B7D1993F7F70F91E753
:1020600081453945E921E30535FF93578C0093F706
:10207000F70F137CFC0FA38084012381F400A3815C
:10208000A400330B6A416FF08FF2B7170140054788
:1020900098CB91B4B7170140094798CB2DBC37476F
:1020A00000009307874B834F874B03CF170083CEE6
:1020B000270003CE370003C3470083C8570003C877
:1020C000670083C5770003C6870083C6970003C7F0
:1020D000A70083C7B7002381F401A300E501A3058E
:1020E000F5002301D501A301C50123026500A30268
:1020F000150123030501A303B5002304C500A304B0
:10210000D5002305E50037040200B1473904A38058
:10211000F4006FF00FD7B745000049469385454A54
:10212000EF00107C37040200C9475104A380F4007B
:102130006FF02FD585472381F500370402008547CE
:102140000D04A380F4006FF0CFD3C5472381F500C1
:102150003704020085470D04A380F4006FF06FD2AE
:102160009387018203C5070083C5170003C62700B4
:1021700083C6370003C7470083C7570037040200F0
:102180002381A400A383F4009947A381B400238290
:10219000C400A382D4002383E4002104A380F400BC
:1021A0006FF02FCE137719001DC7BE89894B11A878
:1021B000638B091283C7C10BFD1993F7F70F639463
:1021C000071281454A85A526E30475FF8547631CF0
:1021D000F51083D70A01324702C693094102930CD6
:1021E000F7FF894B638D0C043E8C09A8630E0C0429
:1021F00003C7C10B7D1C1377F70F39E7CE854A85DE
:102200003D26E30575FF85476310F5043247925775
:10221000110A050713D687003AC6230EFAFE13D714
:102220000701E183A30ECAFE230FEAFEA30FFAFE05
:10223000638E0C0AFD1C83D70A01E3970CFA13770F
:1022400019005DD339494DB7324793578700137C46
:10225000F70F93F7F70F05B563010C0603DA0A01D0
:1022600093094102094911A8E30F0AA683C7C10BCC
:102270007D1A93F7F70FE39807A6CE853945452CCD
:10228000E30425FF8547E310F5A65247925711074F
:10229000BA853ACA13D6870093D6070113D78701A8
:1022A000238EF5FEA38EC5FE238FD5FEA38FE5FEFC
:1022B0001DBC01458147014C7DBBF247E38507A268
:1022C00003D90A01894911A8E30F09A083C7C10BEB
:1022D0007D1993F7F70FE39807A081453945812CC5
:1022E000E30435FF09B48147014C71B332476A8575
:1022F00093578700137CF70F93F7F70FADBB02C618
:102300000145D5B2397106DE22DC26DA4AD84ED62E
:1023100052D49387010A130740060546239CC70041
:1023200098CB85451145371401402390010AD8C345
:102330002386070023AA070002C402C602C8EFF0E2
:102340004F8685449D47C1490D4A2C0013050480E2
:102350002314F1004EC852C60949EFE0FFAA232812
:1023600094802328248111472328E4808545414512
:1023700002CA02CC02CEEFF0CF824C0837150140E2
:10238000231A41014ECE26CCEFE01FA804C8232813
:102390002401F2506254D2544259B259225A216156
:1023A00082801306F5FF3DCDB71601400145014778
:1023B0001388010A93860680094E854E0543FD5811
:1023C00029CD7D159377170095CB23A8C6018327C8
:1023D000480023AA6600FD1795CB0100FD17F5FF05
:1023E0008327480023A8D601FD1781C70100FD17E8
:1023F000F5FF7D160583E31516FD828023AAC6012D
:102400008327480023AA6600FD17E1FB23A8D60115
:102410007D160583E31616FBCDB703C705001D45E2
:1024200085054DB782809376F50399E29306000403
:10243000137505083DCDB718014021488145138526
:10244000010A93880880054E054323AA68005C4171
:10245000FD17A9CB0100FD17F5FF5C4103A788001C
:1024600023A8C801FD170583058B81C70100FD174F
:10247000F5FF8581931777007D18DD8DFD166308C4
:102480000800E1F6B3D705012300F600828023009F
:10249000B6000506C1CE23AA68005C4181452148EB
:1024A000FD17CDFB03A7880023A8C8010583058B72
:1024B000C9B7138E150003C60500B71501402147A3
:1024C0001385010A9385058089480543054893775C
:1024D00016008DCB23A8150123AA05015C41FD1729
:1024E0008DCB0100FD17F5FF5C4123A86500FD17AA
:1024F00081C70100FD17F5FF7D170582FD1605C395
:10250000F9F6828023AA150123AA05015C41FD1773
:10251000E9FB23A865007D170582FD1675F391C6BA
:1025200003460E002147050E5DB7828082809387A7
:10253000010A03C717002A8605896308071437179D
:10254000014013070780894614CB0548232A070159
:1025500023280701631D054C54CBB71601400545E0
:1025600093860680C8CA1357160088CA13751700C9
:10257000630D054C094588CAB71601400548938686
:1025800006801355260023AA060123A80601137806
:1025900015002A9709456309084C88CAB7160140F7
:1025A000054593860680C8CA1358360088CA137535
:1025B000180032976307054A094588CAB7160140D3
:1025C000938606800545C8CA429788CA058B63076B
:1025D0000748094798CA3715014013070580854603
:1025E00054CB14CB0948232A070154CB14CB2328FE
:1025F000070154CB14CB8326058083C8870193F64B
:10260000F6F093E606042320D580C686054563864A
:10261000080048CB08CBFD16EDFEB71E014013871E
:102620000E80854654CB084714CB54CB0328870033
:1026300014CB54CB032387001378280005810603AD
:102640001373430033686800058914CB3365A80011
:102650006309D556130EE5FF137EDEFF938618023D
:10266000BA85054363030E4423AA650023A86500C9
:10267000FD16FDFA9C411375F50F93F7F7F093E7FC
:1026800007039CC189479CC98280D843B716014083
:1026900093860680094823A80601054823AA060157
:1026A0007D176301074001007D1775FFD843B716FA
:1026B000014005487D1723A8068101C701007D1749
:1026C00075FF630705383717014089462328D780EF
:1026D000D843B7160140938606800545C8CA7D17C2
:1026E0006308076E01007D1775FFD843B7160140D8
:1026F00005457D1723A8A68001C701007D1775FF3A
:10270000135716009376170063840638B7160140F6
:10271000094523A8A680D443371501401305058039
:102720000548232A0501FD16638706760100FD167C
:10273000F5FED443371501400548FD1623280581D1
:1027400081C60100FD16F5FE9356260013F516000E
:10275000369763090532B7160140094523A8A680BC
:10276000D44337150140130505800548232A050188
:10277000FD16638F06700100FD16F5FED443371574
:1027800001400548FD162328058181C60100FD167C
:10279000F5FE13583600937618003297638E062C98
:1027A000B7160140094523A8A680D4433715014038
:1027B000130505808548232A1501FD166387066CDD
:1027C0000100FD16F5FED443371501408548FD167E
:1027D0002328158181C60100FD16F5FE4297058B61
:1027E000630607283717014089462328D780D84336
:1027F000B7160140938606800545C8CA7D17630B4E
:10280000075C01007D1775FF83A84700B7160140DC
:1028100005451387F8FF23A8A680630F075A010018
:102820007D1775FF83A84700B7160140094723AA03
:10283000E68005451387F8FF23AAA6806306075A9A
:1028400001007D1775FF83A84700B71601400545B5
:102850001387F8FF23A8A680630D075801007D1792
:1028600075FF83A84700B7160140094723A8E680F3
:1028700005451387F8FF23AAA680630407580100C3
:102880007D1775FF83A84700B716014005451387DC
:10289000F8FF23A8A680630B075601007D1775FF7C
:1028A000371801400327088083A8470003C5870124
:1028B0001377F7F0136707049386F8FF2320E88067
:1028C000368739C93718014013080880054E232A76
:1028D000C8010543368785CE01007D1775FF83A8A3
:1028E0004700232868001387F8FFBA8609CB010048
:1028F0007D1775FF83A847001387F8FFBA867D15FB
:1029000001CD9386F8FF232AC8013687F1F62328E4
:1029100068007D15854875F5371501400548232A5F
:102920000581638A065001007D1775FFB7180140C5
:1029300003A58880D44305470581FD1623A8E880B8
:1029400013781500638306500100FD16F5FED4438D
:10295000371701400545FD16232AA780638C064ED4
:102960000100FD16F5FE3715014003278580D4438D
:1029700085480583FD1623281581058B6385064E42
:102980000100FD16F5FED443371501408548232A82
:102990001581FD1613151700638E064C0100FD16F8
:1029A000F5FEB718014003A78880D443054305838B
:1029B000FD1623A86880058B81C60100FD16F5FE73
:1029C0000A07498F3365070105476306E5281307A2
:1029D000E5FF759B630F071283C687013716014019
:1029E000130606809386160285450548D843232A98
:1029F00006017D1745C701007D1775FFD8430CCA36
:102A00007D1701C701007D1775FFFD16E5F2371729
:102A10000140832707801375F50F93F7F7F093E7CD
:102A200007032320F78089472328F780828014CB6F
:102A3000B7160140054593860680C8CA135716008D
:102A400088CA13751700E31705B20945C8CA2DB621
:102A5000371701408946232AD7809DB90947D8CA2C
:102A60009DBE0945C8CA99BEC8CA0DBE37170140E8
:102A70008946232AD780A5BBB7160140094523AA5A
:102A8000A68025B3B7160140094523AAA680C9B977
:102A9000B7160140094523AAA680B5B90CCAFD1690
:102AA000B1F6B5B723A8060129B983C59701638696
:102AB0000530137826006318085C63830860B71735
:102AC0000140938707808546D4CB94CBFD18E39DC6
:102AD00008FE9843137826001377F7F0136707036F
:102AE00098C385C1631F0800B716014089479386C4
:102AF0000680DCCA054693071002D0CA90CAFD17AB
:102B0000EDFFB7170140094723A8E7801375F50FBC
:102B1000828003C7970109C7137726006310075205
:102B200083C687018DCAB715014093850580054886
:102B30008548D84323AA15017D1749C301007D1795
:102B400075FFD84323A805017D1701C701007D1734
:102B500075FFFD16F9FEB715014083A6058003C871
:102B600097011387058093F6F6F093E6060323A0FA
:102B7000D580E30808F8098A49F6894654CB3A8695
:102B8000D8430548232A06017D1793061002854580
:102B900015C301007D1775FFD8430CCA7D1701C707
:102BA00001007D1775FFFD16A9DED843232A060113
:102BB0007D1765F30CCAFD16EDFAA1B723A8050130
:102BC00049BF937626006394063C854663870800D8
:102BD00054CB14CBFD18E39D08FE371801400327A2
:102BE00008809306000201451377F7F01367070387
:102BF0002320E880984137130140894E8548137E91
:102C0000170013080380630D0E022328D381232AA3
:102C1000138123281381FD163A950583EDF205896A
:102C2000371701408946631B0546232AD78037178B
:102C300001408546232AD7802328D7800545E9A669
:102C4000232AD801232A180123281801FD163A95B2
:102C50000583D5F6E9B71377260063010724C84337
:102C60003718014093080002014E01431308088001
:102C7000054F854F232AF8011307F5FF6307071255
:102C800001007D1775FF83268800C8432328E801CB
:102C900085821307F5FF858A19C701007D1775FF27
:102CA000C8431307F5FF135E1E00939EF601FD183F
:102CB000369333EECE01E39F08FAB71601409386B0
:102CC0000680054823AA0601630D073C01007D1715
:102CD00075FFB716014003A58680D84305480581D6
:102CE0007D1723A80681058901C701007D1775FF9F
:102CF0003345A30005893305A0401D89050599C109
:102D000023A0C50103C7870115CBB71501409385E3
:102D1000058085480548D44323AA0501FD16638E26
:102D200006380100FD16F5FED44323A81501FD1653
:102D300081C60100FD16F5FE7D1771FFB716014033
:102D400003A706801377F7F01367070323A0E68035
:102D50001376060801CA13870184144313861600EC
:102D600010C394C703C7C7001DCB37160140130615
:102D70000680894654CA05488545D4434CCAFD1689
:102D8000638A06320100FD16F5FED44323280601AE
:102D9000FD1681C60100FD16F5FE7D1779FFB717F8
:102DA0000140094723A8E7808280832688000545E3
:102DB0002328E8018582858AFDB5E39208D083A7A0
:102DC0000E8093F7F7F093E7070323A0FE8015BB6F
:102DD00088CA3DB288CA8548371701408946232AE8
:102DE000D7808546232AD780371701408546232878
:102DF000D7803717014089462328D7808546232A64
:102E0000D7803717014085462328D780B716014061
:102E100003A7068003C58701138806801377F7F0A0
:102E20001367070423A0E6809386F8FFE31C05A838
:102E30000547232AE8003717014003258780854688
:102E40002328D78005811378150037170140854660
:102E5000232AD780B716014003A78680054523A8FB
:102E6000A6800583058B131517008546371701408B
:102E7000232AD78037170140832687808548232857
:102E80001781858213F7160025BE23281501B9B2D4
:102E900023280501FDB8232805017DB083C68701DD
:102EA00095CA371501401305058085480548D84364
:102EB000232A05017D17630C071E01007D1775FF8E
:102EC000D843232815017D1701C701007D1775FF21
:102ED000FD16F1FEB716014003A706801305000298
:102EE00001481377F7F01367070323A0E6808C41AE
:102EF0009386068089480543054E13F7150035CBA8
:102F000023A81601D84323AAC6017D1735CB01009B
:102F10007D1775FFD84323A866007D1701C7010000
:102F20007D1775FF7D152E98858161F9137818003E
:102F300037170140894663100816232AD780D843E3
:102F4000B7160140938606808545CCCA7D17630677
:102F5000071801007D1775FFD843B7160140854556
:102F60007D1723A8B68001C701007D1775FF0545B1
:102F7000C5B323AA1601D84323AAC6017D1741FB76
:102F800023A866007D152E98858125F945B7130580
:102F9000000201480143054F054E232AC70114478B
:102FA000135818002328C7018582858A939EF6014D
:102FB0007D15369333E80E016DF1232AE7010847AA
:102FC0002328E70105813345A30005897D1565990F
:102FD000210589C523A0050183C887013717014052
:102FE0001307078085466387080054CB14CBFD1870
:102FF000E39D08FEB716014003A706801377F7F09C
:103000001367070323A0E6801376060801CA138717
:10301000018414431386160010C394C783C7C700E6
:10302000E38F07D63717014089461307078054CB33
:10303000854654CB14CBFD17EDFF95B3D843B71598
:10304000014093850580854823AA15017D179306C5
:103050001002054805C701007D1775FFD84323A856
:1030600005017D1701C701007D1775FFFD16E38976
:1030700006AAD84323AA15017D1771FF23A80501CD
:10308000FD16E5FA71BC93071002854654CB14CBAC
:10309000FD17EDFF1DB42328D78055B52328D78011
:1030A00079B6884623A806010581058991B12328B0
:1030B000150139BD23280601CDB123A81501ADB9ED
:1030C000371701408327078093F7F7F093E707034B
:1030D0002320F780E31708A201BC8CCA05458DB9EF
:1030E000B3C7A5008D8B3307C50081E78D4763EE1D
:1030F000C700AA876370E50A83C6050085078505B2
:10310000A38FD7FEE3EAE7FE828093763500AA8795
:1031100091CA83C6050085078505A38FD7FE93F660
:103120003700FDB79376C7FF138606FE63F0C70628
:1031300083A3050083A2450083AF850003AFC500CC
:1031400083AE050103AE450103A3850183A8C50134
:103150009385450223A0770003A8C5FF23A257004B
:1031600023A4F70123A6E70123A8D70123AAC701B7
:1031700023AC670023AE17019387470223AE07FFF6
:1031800075B790419107910523AEC7FEE3EBD7FEDB
:10319000E3E4E7F6828039713EDA2ED232D436D6B5
:1031A0003AD842DC46DE9387018122CC804326CA8E
:1031B00006CEAA8409C41C4C99E32285C9280C4474
:1031C00054102686228536C68D2EF2406244D244A3
:1031D00021618280411122C406C62A842316B500CB
:1031E0002317C50023200500232205002324050002
:1031F0002322050623280500232A0500232C050089
:10320000214681451305C505EFC09FFF97170000B4
:103210009387A79A5CD0971700009387079D1CD4CB
:1032200097170000938747A15CD4971700009387F6
:1032300007A400D01CD8B2402244410182809715D7
:103240000000938545D9A9A2411126C21306800624
:103250009384F5FFB384C4024AC02E8922C406C6F3
:1032600093854407612A2A8401CD23200500232267
:103270002501310508C4138684068145EFC05FF837
:103280002285B240224492440249410182801C4D71
:10329000ADE3411106C622C497070000938767FA81
:1032A0001CD5938781829C4323240504232605048F
:1032B000232805046314F50085471CCD2A841D28A6
:1032C00048C02285052808C422852D2048C44840CE
:1032D00001469145013708440546A545E53D48446A
:1032E0000946C945C53D85471CCCB2402244410131
:1032F0008280828041119387818226C284434AC0A2
:1033000006C69C4C22C42A8999E3268549379384B2
:1033100084048044DC40FD1763D607009C40B9CF8D
:103320008440C5BF0317C40039E7C177850723224E
:1033300004062320040023220400232404005CC488
:1033400023280400232A0400232C0400214681455D
:103350001305C405EFC0DFEA232A0402232C04026C
:1033600023240404232604042285B24022449244E8
:103370000249410182801304840671BF91454A8548
:10338000E13588C051FDB1472320F9000144E9BF70
:10339000797122D44AD052CC56CA5AC85EC606D6D3
:1033A00026D24ECE2A8AAE8A130485040149054BE3
:1033B000FD5B09ECB25022544A8592540259F249FD
:1033C000624AD24A424BB24B45618280044483290F
:1033D0004400FD1963D409000040E1BF83D7C40055
:1033E000637BFB008397E40063877701A6855285A2
:1033F000829A3369A90093848406E1BF011126CA29
:1034000093843500F19806CE22CC4AC84EC6A1045A
:10341000B14763F3F404B14463E2B4042A89EF00D2
:1034200070559387418498433A8439E09387818427
:103430009C4391E781454A85912F23A4A184A685C9
:103440004A85A927FD5963193507B1472320F9009B
:103450004A85EF00505229A0E3D004FCB1471CC1BB
:103460000145F2406244D2444249B249056182803A
:103470001C40858F63CF0702AD4663F6F6001CC083
:103480003E9404C031A05C406313870223A2F18400
:103490004A85EF00504E1305B4009307440061992C
:1034A0003307F5405DDF3A94898F1CC05DBF5CC374
:1034B000C5B72287404095BF130435007198E302D9
:1034C00085FCB305A4404A85D125E31C35FBB5BF77
:1034D0001C46FD171CC663D90700184E63C5E700DC
:1034E000A9476393F50069A71C422E85138717002F
:1034F00018C22380B7008280011122CC26CA4AC894
:103500004EC652C406CE2A89AE893284B304D60090
:103510007D5A63149400014509A8834504004E8632
:103520004A857D370504E31645FFF2406244D244E4
:103530004249B249224A05618280357122CD26CBAB
:103540004AC94EC706CF52C556C35AC1DEDEE2DCB9
:10355000E6DAAA89AE843289368401C51C4D91E32E
:103560003D3397170000938767F8639CF40C83A49E
:10357000490083D7C400A18BFDC79C48EDC79307C2
:103580000002A304F1029307000302D22305F10213
:1035900022C6930B5002971A0000938A2AF9054C11
:1035A000294B4A848347040099C36390770FB30C77
:1035B0002441638D0C00E6864A86A6854E852D3F04
:1035C000FD576308F51E9256E69636D283470400EF
:1035D0006381071EFD571309140002C802CE3ECABC
:1035E00002CCA309010482D48345090015465685FF
:1035F000EF00B03613041900C24751E913F7070171
:1036000009C713070002A309E10413F7870009C7DC
:103610001307B002A309E104834609001307A002BF
:10362000638FE606F2474A84814625460347040035
:1036300093051400130707FD6378E60AADCA3ECE72
:10364000BDA097170000938767EC6395F40083A4EF
:10365000890005B797170000938747E7E39BF4F0CD
:1036600083A4C90039B7A6854E85DD2D09D97D55BE
:10367000FA406A44DA444A49BA492A4A9A4A0A4B01
:10368000F65B665CD65C0D618280050421BF330564
:1036900055413315AC00C98F3EC82289B1B73247B6
:1036A00093064700184336C6634907023ACE0347DC
:1036B00004009307E002631FF70403471400930715
:1036C000A002631BF702B2470904138747009C431B
:1036D0003AC663C107023ECA35A83307E04093E704
:1036E00027003ACE3EC8E1B7B387670385462E84EC
:1036F000BA972DBFFD57C5B7050402CA8146814759
:1037000025460347040093051400130707FD63785B
:10371000E606F1F2834504000D4617150000130577
:1037200065E1EF00902311CD97170000938787E0A4
:103730001D8D93070004B397A700424505045D8DD6
:103740002AC8834504001946171500001305C5DE75
:10375000130914002304B102EF0030203DC197D7B4
:10376000FFFF9387278A95E74247B24713770710F1
:1037700009CF91073EC69257D2973ED21DB5B38767
:10378000670385462E84BA97ADBF9D07E19BA107CD
:10379000D5B7780097060000938646D626860C0893
:1037A0004E8597000000E7000000FD572A8AE314C9
:1037B000F5FC83D7C40093F70704E39A07EA125590
:1037C00045BD780097060000938646D326860C08F0
:1037D0004E85012AD9BF797156CA9C49BA8A984543
:1037E00022D426D24ECE52CC06D64AD05AC85EC675
:1037F000AA892E84B284368A63D3E700BA879CC034
:103800000347340419C385079CC01C4093F7070283
:1038100081C79C4089079CC0032904001379690073
:10382000631A0900130B9401FD5B5C449840998F67
:10383000634CF9041C408346340493F70702B33603
:10384000D000A5EB13063404D2854E85829AFD572D
:103850006303F5041C4011469840998B54448144FD
:103860006397C700B384E64063D3040081441C44DB
:1038700018486354F700998FBE94014969047D5B31
:1038800063982405014509A885465A86D2854E8548
:10389000829A631E75017D55B2502254925402598A
:1038A000F249624AD24A424BB24B456182800509D5
:1038B000ADBF3307D40013060003A301C7040347B9
:1038C000540493871600A2978906A381E7049DBF3D
:1038D00085462286D2854E85829AE30E65FB0509D0
:1038E00045B7797122D426D24AD04ECE06D652CCD4
:1038F00056CA5AC8B68983C685019307900632898D
:10390000AA842E8413863504638DF60263E2D706FB
:10391000930780056388F61863EDD700638106225C
:1039200093073004638FF60A930A24042301D40416
:10393000D1A0930730066386F60A93074006E39505
:10394000F6FE1C40084393F6070893054500CDC6D4
:103950001C410CC363D807001307D002B307F04023
:10396000A301E40497160000938686BD294775A835
:10397000930700076384F61663E5D7029307E00612
:10398000638BF6189307F006E390F6FA0C401C439D
:1039900013F80508138547006308080608C39C430D
:1039A00095A893075007E383F6FE93078007638B80
:1039B000F61293073007E399F6F61C43D041814590
:1039C0009386470014C383AA07005685EF00E0786A
:1039D00001C53305554148C05C401CC8A30104041F
:1039E00071A81C43930A2404938647009C4314C384
:1039F0002301F4048547D5B793F607041C410CC393
:103A0000B1DAC207C187B9B793F5050408C3C1D9B4
:103A100083D707001307F0066387E60E97160000AA
:103A2000938606B22947A30104044C400CC463C525
:103A3000050008406D9908C099E3B28A91CDB28A19
:103A4000B3F5E702FD1AB69583C505002380BA00D9
:103A5000B3D5E70263FFE70AA147631EF7001C40E6
:103A6000858B91CB58401C4863C7E7009307000340
:103A7000A38FFAFEFD1A3306564110C84E87CA8638
:103A80007000A2852685813B7D5A631E450B7D55BE
:103A9000B250225492540259F249624AD24A424BDD
:103AA00045618280A382D50497160000938646A9BB
:103AB0000C40084313F805081C411105630D08026A
:103AC00008C313F7150001C793E505020CC0414771
:103AD000B9FB0C4093F5F5FD0CC0B1B79C4193E7E1
:103AE00007029CC193078007A302F4049716000005
:103AF000938646A675BF13F8050408C3E30308FCC4
:103B0000C207C1837DBF97160000938666A3214735
:103B100019BFAE8735B794411C43CC4913F806084A
:103B2000138547006306080008C39C438CC301A8A3
:103B300008C393F606049C43F5DA2390B7002328C4
:103B40000400B28A25BF14485686CA852685829904
:103B5000E30F45F31C40898B8DE7B2474844E35996
:103B6000F5F23E8535B785465686CA852685829903
:103B7000E30F65F1050A5C443247998FE345FAFE8D
:103B8000E9BF014A930A94017D5BF5B7411122C454
:103B90002A842E8523A0010C06C6EFD0BFA6FD57B0
:103BA0006317F5009387010C9C4391C31CC0B2407E
:103BB000224441018280411122C42E848395E50074
:103BC00006C6A92D634905007C48AA977CC8B24067
:103BD0002244410182808357C4007D777D17F98F8D
:103BE0002316F400EDB783D7C500011122CC26CAF5
:103BF0004AC84EC606CE93F70710AA842E8432898F
:103C0000B68991C78395E5008946014635218357DA
:103C1000C4007D777D17F98F2316F4008315E40027
:103C20006244F240CE864A86B24942492685D24451
:103C3000056101A2411122C42E848395E50006C6C8
:103C4000E52EFD570357C400631BF500FD77FD17F4
:103C5000F98F2316F400B240224441018280856727
:103C6000D98F2316F40068C8FDB78395E50001A439
:103C7000011122CC26CA4AC806CE4EC6AA842E8975
:103C8000328409C51C4D99E3EFF06FE097170000EF
:103C90009387C7856319F406C0401C4C1CC4835726
:103CA000C400A18BC9C31C48BDCF1C4808409379F0
:103CB000F90F1379F90F1D8D5C486346F500A28555
:103CC0002685012E2DE51C440505FD171CC41C404E
:103CD0001387170018C0238037015C486389A70049
:103CE0008357C400858B81CBA9476316F900A28551
:103CF0002685C5240DEDF24062444A85D2444249EE
:103D0000B24905618280971700009387278063146A
:103D1000F400804459B7970700009387277BE31E80
:103D2000F4F6C0449DBFA28526851D283DDD7D5942
:103D3000D9B7411122C42A842E85B285368623A0A4
:103D4000010C06C6EFD05F87FD576317F500938718
:103D5000010C9C4391C31CC0B240224441018280AB
:103D600041119387018126C2844322C44AC006C6FA
:103D70002A892E8491C49C4C81E72685EFF02FD1AF
:103D80009707000093878776631CF402C0400317EF
:103D9000C40093170701C18393F68700B5EE93F62D
:103DA00007019DEEA5472320F9001367070423169A
:103DB000E4007D55B2402244924402494101828090
:103DC00097070000938787746314F4008044C1B799
:103DD000970700009387876FE31BF4FAC04445BF41
:103DE000918B8DC74C5889C9930744046384F500AF
:103DF0004A855926232A04028357C400232204003B
:103E000093F7B7FD2316F4001C481CC08357C40069
:103E100093E787002316F4001C4881EF8357C40002
:103E20001307002093F707286385E700A2854A85DA
:103E300071248357C40013F7170005C75C48232477
:103E40000400B307F0401CCC1C480145A5F78317BC
:103E5000C40013F7070839DF93E707042316F400BB
:103E600089BF898B014791E3584818C4F1BF4111BC
:103E700022C42A842E8523A0010C06C63929FD57A9
:103E80006317F5009387010C9C4391C31CC0B2409B
:103E900022444101828083D7C500011122CC26CA69
:103EA00006CE4AC84EC613F78700AA842E8471EF47
:103EB000D841634DE000B841634AE0000145F2405B
:103EC0006244D2444249B2490561828058547DD748
:103ED00003A904009396370123A0040063DD0606BE
:103EE00070488357C400918B99C75C401D8E5C5805
:103EF00099C33C401D8E5C540C50814626858297A8
:103F0000FD570357C400631DF5009440F54763E86F
:103F1000D706B70740208507B3D7D700858BA5C341
:103F20001C48232204001CC09317370163D80700E4
:103F3000FD576314F5009C4091E368C84C5823A0DA
:103F40002401ADDD930744046384F50026852D2408
:103F5000232A0402A5B70C50014685462685029700
:103F6000FD572A86E31FF5F69C40A5DF754763855C
:103F7000E70059476394E70423A0240181B713673E
:103F800007042316E4007D551DBF83A90501E387BF
:103F900009F203A905008D8B23A0350133093941AE
:103FA000014791E3D84918C4E35A20F11C540C503E
:103FB000CA864E86268582976349A0008357C4002F
:103FC00093E707042316F4007DBFAA993309A9409B
:103FD000E1BF9C49A5C3011122CC06CE2A8419C594
:103FE0001C4D89E72EC6EFF08FAAB2459707000057
:103FF0009387C74F639BF5004C408397C50095C7D7
:1040000022856244F240056179B5970700009387E5
:10401000E74F6394F5000C44CDB7970700009387F2
:10402000E74AE39CF5FC4C44C9BFF24062440145B9
:104030000561828001458280411122C42A842E8537
:10404000B285368623A0010C06C6952CFD57631752
:10405000F5009387010C9C4391C31CC0B2402244DD
:10406000410182801971A6DAAE848395E500A2DC55
:1040700086DE328463DC050083D7C40023A00600FB
:1040800093F707089DE39307004015A0300836C654
:10409000652AB246E34205FE7247BD67F98F79771C
:1040A000BA9793B717009CC2F9BF930700041CC0CE
:1040B000F6506654D65401450961828083D7C50005
:1040C000011122CC06CE26CA4AC8898B2E8489CFFC
:1040D000930774041CC01CC885475CC8F240624446
:1040E000D24442490561828074003000AA849D3F19
:1040F000A2452A892685EFF06FB001ED8317C40031
:1041000013F7072061FFF19B93E727002316F400C4
:10411000C1B797F7FFFF9387C7129CD48357C4009A
:1041200008C008C893E707082316F400A2475CC834
:10413000B24789CF8315E4002685252A01C9835714
:10414000C400F19B93E717002316F4008357C400C3
:104150003369F9002316240151B793F5F50F2A9618
:104160006314C5000145828083470500E38DB7FED7
:104170000505FDB782808280CDC183A7C5FF4111AF
:1041800022C406C626C21384C5FF63D307003E942B
:10419000AA84CD37938741849C4399EB2322040062
:1041A00023A281842244B240268592444101E1B792
:1041B000637EF40014403307D4006396E70098430D
:1041C000DC43369718C05CC0E1BFBA87D84319C337
:1041D000E37DE4FE94433386D700631F86001040DE
:1041E000B29694C33386D700E31EC7FA10435843F0
:1041F000B29694C3D8C37DB76375C400B1479CC061
:1042000055B71040B306C4006316D7001443584393
:10421000B29614C058C0C0C371B78280411122C485
:104220002A842E85B285368623A0010C06C6712805
:10423000FD576317F5009387010C9C4391C31CC085
:10424000B240224441018280411122C42A842E8539
:10425000B28523A0010C06C6B920FD576317F500EF
:104260009387010C9C4391C31CC0B240224441017E
:104270008280411122C42A842E8523A0010C06C607
:104280000D28FD576317F5009387010C9C4391C3DC
:104290001CC0B2402244410182809307800523A0C4
:1042A000F10C7D5582809307800523A0F10C7D558C
:1042B00082809307800523A0F10C0145828093073B
:1042C000800523A0F10C7D5582809307800523A0F3
:1042D000F10C7D5582800000C60700009C0700009D
:1042E000B405000048080000B40500003E080000C6
:1042F00022080000B40500000A080000FA070000C8
:104300006207000062070000B40500000609000013
:10431000F20800001C090000B4050000B40500000C
:10432000E00800009A080000B4050000B405000091
:10433000B4050000B4050000B4050000B405000099
:10434000B405000088080000050F160002071002DF
:10435000020000000A1003000E00010AFF0700001F
:1043600009022E0001010080320904000004FF0050
:10437000000407050102400000070581024000001B
:10438000070582024000000705020240000000000D
:1043900009022E0001010080320904000004FF0020
:1043A0000004070501020002000705810200020067
:1043B0000705820200020007050202000200000059
:1043C000140343004D005300490053002D004400E6
:1043D000410050002403480053002D004C004900C8
:1043E0004E004B00200043004D0053004900530095
:1043F0002D00440041005000120332003000320012
:104400003200300035003200370000000A0600029A
:10441000FF0000400100000053797374656D436C28
:104420006B3A25640D0A0000061A0000EA19000024
:104430000C190000D4180000B21900007E19000009
:1044400096170000781600007E170000C81A0000BA
:104450004C1A00007816000078160000781600004C
:1044600078160000781600001E180000C81700001B
:104470009E1A0000581900005A1A00006417000024
:104480005617000078160000781600007816000015
:10449000781600007816000078160000A2160000BA
:1044A0004E49450048532D4C696E6B20434D53498E
:1044B000532D44415000000032303232303630311A
:1044C00030303100322E30000000000000000000CB
:1044D00000000000000000000000000000000000DC
:1044E00000000000000000000000000000000000CC
:1044F00000000000000000000000000000000000BC
:1045000000000000000000000000000000000000AB
:10451000000000000000000000000000000000009B
:104520000000000000000000232D302B20000000C0
:10453000686C4C0065666745464700003031323391
:10454000343536373839414243444546000000008F
:1045500030313233343536373839616263646566F9
:044560000000000057
:1045640012010002FF00004000F005F0000101020A
:104574000301000009070000000000000000000023
:104584000000000000000000000000000000000027
:104594000000000000000000000000000000000017
:1045A40000000000090700000000000000000000F7
:1045B40000000000000000000000000000000000F7
:1045C40000000000000000000000000000000000E7
:1045D40000000000280000000001040001000000A9
:1045E40000000000000157494E55534200000000EE
:1045F4000000000000000000000000008E00000029
:1046040000010500010084000000010000002800F2
:1046140044006500760069006300650049006E008F
:104624007400650072006600610063006500470065
:1046340055004900440000004E0000007B00430088
:1046440044004200330042003500410044002D0084
:1046540032003900330042002D00340036003600A9
:1046640033002D0041004100330036002D0031009D
:104674004100410045003400360034003600330068
:104684003700370036007D000000000012034D00A3
:104694005300460054003100300030001700000081
:1046A40000000000010203040102030406070809D4
:1046B40000000000E844000008450000C844000071
:1046C40000000000000000000000000000000000E6
:1046D40000000000000000000000000000000000D6
:1046E40000000000000000000000000000000000C6
:1046F40000000000000000000000000000000000B6
:1047040000000000000000000000000000000000A5
:1047140001FF01000044950802040608740A002001
:10472400500100200403090408034E004900450019
:10473400322E302E30000000500100200000000016
:00000001FF
